{
  "_format": "hh3-artifact-1",
  "contractName": "TLSNContentVerifierWithMultisig",
  "sourceName": "contracts/TLSNContentVerifierWithMultisig.sol",
  "abi": [
    {
      "inputs": [
        {
          "internalType": "address[3]",
          "name": "_admins",
          "type": "address[3]"
        }
      ],
      "stateMutability": "nonpayable",
      "type": "constructor"
    },
    {
      "anonymous": false,
      "inputs": [
        {
          "indexed": true,
          "internalType": "bytes32",
          "name": "contentHash",
          "type": "bytes32"
        },
        {
          "indexed": false,
          "internalType": "string",
          "name": "ipfsCid",
          "type": "string"
        },
        {
          "indexed": true,
          "internalType": "address",
          "name": "uploader",
          "type": "address"
        }
      ],
      "name": "ContentVerified",
      "type": "event"
    },
    {
      "anonymous": false,
      "inputs": [
        {
          "indexed": true,
          "internalType": "bytes32",
          "name": "contentHash",
          "type": "bytes32"
        },
        {
          "indexed": false,
          "internalType": "string",
          "name": "reason",
          "type": "string"
        }
      ],
      "name": "TLSNVerificationFailed",
      "type": "event"
    },
    {
      "anonymous": false,
      "inputs": [
        {
          "indexed": true,
          "internalType": "uint256",
          "name": "operationId",
          "type": "uint256"
        },
        {
          "indexed": false,
          "internalType": "string",
          "name": "domain",
          "type": "string"
        },
        {
          "indexed": false,
          "internalType": "enum TLSNContentVerifierWithMultisig.OperationType",
          "name": "opType",
          "type": "uint8"
        },
        {
          "indexed": false,
          "internalType": "address",
          "name": "creator",
          "type": "address"
        }
      ],
      "name": "WhitelistOperationCreated",
      "type": "event"
    },
    {
      "anonymous": false,
      "inputs": [
        {
          "indexed": true,
          "internalType": "uint256",
          "name": "operationId",
          "type": "uint256"
        },
        {
          "indexed": false,
          "internalType": "string",
          "name": "domain",
          "type": "string"
        },
        {
          "indexed": false,
          "internalType": "enum TLSNContentVerifierWithMultisig.OperationType",
          "name": "opType",
          "type": "uint8"
        }
      ],
      "name": "WhitelistOperationExecuted",
      "type": "event"
    },
    {
      "anonymous": false,
      "inputs": [
        {
          "indexed": true,
          "internalType": "uint256",
          "name": "operationId",
          "type": "uint256"
        },
        {
          "indexed": true,
          "internalType": "address",
          "name": "signer",
          "type": "address"
        },
        {
          "indexed": false,
          "internalType": "uint8",
          "name": "signatureCount",
          "type": "uint8"
        }
      ],
      "name": "WhitelistOperationSigned",
      "type": "event"
    },
    {
      "inputs": [],
      "name": "PROOF_EXPIRY",
      "outputs": [
        {
          "internalType": "uint256",
          "name": "",
          "type": "uint256"
        }
      ],
      "stateMutability": "view",
      "type": "function"
    },
    {
      "inputs": [],
      "name": "SIGNATURE_THRESHOLD",
      "outputs": [
        {
          "internalType": "uint8",
          "name": "",
          "type": "uint8"
        }
      ],
      "stateMutability": "view",
      "type": "function"
    },
    {
      "inputs": [
        {
          "internalType": "address",
          "name": "",
          "type": "address"
        }
      ],
      "name": "admins",
      "outputs": [
        {
          "internalType": "bool",
          "name": "",
          "type": "bool"
        }
      ],
      "stateMutability": "view",
      "type": "function"
    },
    {
      "inputs": [
        {
          "internalType": "bytes32",
          "name": "",
          "type": "bytes32"
        }
      ],
      "name": "contentRecords",
      "outputs": [
        {
          "internalType": "bytes32",
          "name": "contentHash",
          "type": "bytes32"
        },
        {
          "internalType": "string",
          "name": "ipfsCid",
          "type": "string"
        },
        {
          "internalType": "bytes32",
          "name": "domainHash",
          "type": "bytes32"
        },
        {
          "internalType": "address",
          "name": "uploader",
          "type": "address"
        },
        {
          "internalType": "uint256",
          "name": "timestamp",
          "type": "uint256"
        },
        {
          "internalType": "string",
          "name": "requestId",
          "type": "string"
        }
      ],
      "stateMutability": "view",
      "type": "function"
    },
    {
      "inputs": [
        {
          "internalType": "string",
          "name": "_domain",
          "type": "string"
        },
        {
          "internalType": "bool",
          "name": "_isAdd",
          "type": "bool"
        }
      ],
      "name": "createPendingOperation",
      "outputs": [
        {
          "internalType": "uint256",
          "name": "opId",
          "type": "uint256"
        }
      ],
      "stateMutability": "nonpayable",
      "type": "function"
    },
    {
      "inputs": [
        {
          "internalType": "uint256",
          "name": "_opId",
          "type": "uint256"
        }
      ],
      "name": "executeOperation",
      "outputs": [],
      "stateMutability": "nonpayable",
      "type": "function"
    },
    {
      "inputs": [
        {
          "internalType": "bytes32",
          "name": "_contentHash",
          "type": "bytes32"
        }
      ],
      "name": "getContentRecord",
      "outputs": [
        {
          "internalType": "bytes32",
          "name": "",
          "type": "bytes32"
        },
        {
          "internalType": "string",
          "name": "",
          "type": "string"
        },
        {
          "internalType": "address",
          "name": "",
          "type": "address"
        },
        {
          "internalType": "uint256",
          "name": "",
          "type": "uint256"
        },
        {
          "internalType": "string",
          "name": "",
          "type": "string"
        }
      ],
      "stateMutability": "view",
      "type": "function"
    },
    {
      "inputs": [
        {
          "internalType": "uint256",
          "name": "",
          "type": "uint256"
        },
        {
          "internalType": "address",
          "name": "",
          "type": "address"
        }
      ],
      "name": "hasSigned",
      "outputs": [
        {
          "internalType": "bool",
          "name": "",
          "type": "bool"
        }
      ],
      "stateMutability": "view",
      "type": "function"
    },
    {
      "inputs": [
        {
          "internalType": "string",
          "name": "_domain",
          "type": "string"
        }
      ],
      "name": "isDomainWhitelisted",
      "outputs": [
        {
          "internalType": "bool",
          "name": "",
          "type": "bool"
        }
      ],
      "stateMutability": "view",
      "type": "function"
    },
    {
      "inputs": [],
      "name": "operationCount",
      "outputs": [
        {
          "internalType": "uint256",
          "name": "",
          "type": "uint256"
        }
      ],
      "stateMutability": "view",
      "type": "function"
    },
    {
      "inputs": [
        {
          "internalType": "uint256",
          "name": "",
          "type": "uint256"
        }
      ],
      "name": "pendingOperations",
      "outputs": [
        {
          "internalType": "string",
          "name": "domain",
          "type": "string"
        },
        {
          "internalType": "enum TLSNContentVerifierWithMultisig.OperationType",
          "name": "opType",
          "type": "uint8"
        },
        {
          "internalType": "uint8",
          "name": "signatureCount",
          "type": "uint8"
        },
        {
          "internalType": "bool",
          "name": "executed",
          "type": "bool"
        }
      ],
      "stateMutability": "view",
      "type": "function"
    },
    {
      "inputs": [
        {
          "internalType": "uint256",
          "name": "_opId",
          "type": "uint256"
        }
      ],
      "name": "signOperation",
      "outputs": [],
      "stateMutability": "nonpayable",
      "type": "function"
    },
    {
      "inputs": [
        {
          "internalType": "bytes",
          "name": "_proof",
          "type": "bytes"
        }
      ],
      "name": "validateTLSNProofBLS",
      "outputs": [
        {
          "internalType": "bool",
          "name": "",
          "type": "bool"
        },
        {
          "internalType": "string",
          "name": "",
          "type": "string"
        }
      ],
      "stateMutability": "nonpayable",
      "type": "function"
    },
    {
      "inputs": [
        {
          "internalType": "bytes",
          "name": "_proof",
          "type": "bytes"
        }
      ],
      "name": "validateTLSNProofECDSA",
      "outputs": [
        {
          "internalType": "bool",
          "name": "",
          "type": "bool"
        },
        {
          "internalType": "string",
          "name": "",
          "type": "string"
        }
      ],
      "stateMutability": "view",
      "type": "function"
    },
    {
      "inputs": [
        {
          "internalType": "bytes",
          "name": "_proof",
          "type": "bytes"
        }
      ],
      "name": "validateTLSNProofSimple",
      "outputs": [
        {
          "internalType": "bool",
          "name": "",
          "type": "bool"
        },
        {
          "internalType": "string",
          "name": "",
          "type": "string"
        }
      ],
      "stateMutability": "view",
      "type": "function"
    },
    {
      "inputs": [
        {
          "internalType": "bytes32[]",
          "name": "_contentHashes",
          "type": "bytes32[]"
        },
        {
          "internalType": "string[]",
          "name": "_ipfsCids",
          "type": "string[]"
        },
        {
          "internalType": "bytes[]",
          "name": "_tlsnProofs",
          "type": "bytes[]"
        },
        {
          "internalType": "bytes32",
          "name": "_domainHash",
          "type": "bytes32"
        }
      ],
      "name": "verifyAndStoreBatchBLS",
      "outputs": [],
      "stateMutability": "nonpayable",
      "type": "function"
    },
    {
      "inputs": [
        {
          "internalType": "bytes32",
          "name": "_contentHash",
          "type": "bytes32"
        },
        {
          "internalType": "string",
          "name": "_ipfsCid",
          "type": "string"
        },
        {
          "internalType": "string",
          "name": "_requestId",
          "type": "string"
        },
        {
          "internalType": "string",
          "name": "_fullPrompt",
          "type": "string"
        },
        {
          "internalType": "bytes",
          "name": "_tlsnProof",
          "type": "bytes"
        },
        {
          "internalType": "bytes32",
          "name": "_expectedContentHash",
          "type": "bytes32"
        },
        {
          "internalType": "bytes32",
          "name": "_domainHash",
          "type": "bytes32"
        }
      ],
      "name": "verifyAndStoreContent",
      "outputs": [],
      "stateMutability": "nonpayable",
      "type": "function"
    },
    {
      "inputs": [
        {
          "internalType": "bytes32",
          "name": "_contentHash",
          "type": "bytes32"
        },
        {
          "internalType": "string",
          "name": "_ipfsCid",
          "type": "string"
        },
        {
          "internalType": "string",
          "name": "_requestId",
          "type": "string"
        },
        {
          "internalType": "string",
          "name": "_fullPrompt",
          "type": "string"
        },
        {
          "internalType": "bytes",
          "name": "_tlsnProof",
          "type": "bytes"
        },
        {
          "internalType": "bytes32",
          "name": "_expectedContentHash",
          "type": "bytes32"
        },
        {
          "internalType": "bytes32",
          "name": "_domainHash",
          "type": "bytes32"
        }
      ],
      "name": "verifyAndStoreContentBLS",
      "outputs": [],
      "stateMutability": "nonpayable",
      "type": "function"
    },
    {
      "inputs": [
        {
          "internalType": "bytes32",
          "name": "_contentHash",
          "type": "bytes32"
        },
        {
          "internalType": "string",
          "name": "_ipfsCid",
          "type": "string"
        },
        {
          "internalType": "string",
          "name": "_requestId",
          "type": "string"
        },
        {
          "internalType": "string",
          "name": "_fullPrompt",
          "type": "string"
        },
        {
          "internalType": "bytes",
          "name": "_tlsnProof",
          "type": "bytes"
        },
        {
          "internalType": "bytes32",
          "name": "_expectedContentHash",
          "type": "bytes32"
        },
        {
          "internalType": "bytes32",
          "name": "_domainHash",
          "type": "bytes32"
        }
      ],
      "name": "verifyAndStoreContentSimple",
      "outputs": [],
      "stateMutability": "nonpayable",
      "type": "function"
    },
    {
      "inputs": [
        {
          "internalType": "bytes32",
          "name": "",
          "type": "bytes32"
        }
      ],
      "name": "whitelistedDomains",
      "outputs": [
        {
          "internalType": "bool",
          "name": "",
          "type": "bool"
        }
      ],
      "stateMutability": "view",
      "type": "function"
    }
  ],
  "bytecode": "0x6080604052346100e9576040516120453881900390601f8201601f19168301906001600160401b038211848310176100ed57829160405283398101906060818303126100e95781601f820112156100e95760405191606083016001600160401b038111848210176100ed576040528291606081019182116100e957915b8183106100c957835f5b60038110156100ba57600190818060a01b038160051b840151165f525f60205260405f208260ff1982541617905501610086565b604051611f4390816101028239f35b82516001600160a01b03811681036100e95781526020928301920161007c565b5f80fd5b634e487b7160e01b5f52604160045260245ffdfe60806040526004361015610011575f80fd5b5f3560e01c80630e70306d1461014f57806323d3c1421461014a57806324763d071461014557806325d0f8a3146100fa5780632d5551f514610140578063429b62e51461013b57806355293fe31461013657806356b8ef6114610131578063580af39c1461012c578063709df8d91461012757806378be24ff1461012257806388657a201461011d5780639e7bb23314610118578063b5ceb31014610113578063b6c57e9e1461010e578063b97e964e14610109578063c03ba6ab14610104578063d3d97de3146100ff578063d4ee122a146100fa5763da93cf2e146100f5575f80fd5b610ec0565b6104c7565b610e63565b610e46565b610d9e565b610ccc565b610baa565b610b4e565b610ade565b61095b565b6108d3565b6108bd565b610893565b610702565b6106c2565b610693565b6102fb565b6102de565b346102da5760203660031901126102da57600435335f90815260208190526040902061018690610181905b5460ff1690565b610ed6565b6101b76101b26101ae60016101a3855f52600260205260405f2090565b015460101c60ff1690565b1590565b610f0e565b6101e8600260ff6101e060016101d5865f52600260205260405f2090565b015460081c60ff1690565b161015610f4d565b7fa48b41096d2b9617e4a5c97030748f205c98e73368d0cbbfd13fbc7e44e47f8261022361021e835f52600260205260405f2090565b610f9d565b61024c600161023a855f52600260205260405f2090565b01805462ff0000191662010000179055565b805160208151910120906020810191825161026681610ab3565b61026f81610ab3565b6102b657610288610295915f52600160205260405f2090565b805460ff19166001179055565b519051906102a282610ab3565b6102b160405192839283610ff4565b0390a2005b6102cb6102d5915f52600160205260405f2090565b805460ff19169055565b610295565b5f80fd5b346102da575f3660031901126102da576020600354604051908152f35b346102da575f3660031901126102da57602060405160028152f35b9181601f840112156102da578235916001600160401b0383116102da57602083818601950101116102da57565b634e487b7160e01b5f52604160045260245ffd5b60c081019081106001600160401b0382111761037257604052565b610343565b90601f801991011681019081106001600160401b0382111761037257604052565b604051906103a7608083610377565b565b604051906103a760c083610377565b6001600160401b03811161037257601f01601f191660200190565b9291926103df826103b8565b916103ed6040519384610377565b8294818452818301116102da578281602093845f960137010152565b9080601f830112156102da57816020610424933591016103d3565b90565b9060e06003198301126102da57600435916024356001600160401b0381116102da578161045691600401610316565b929092916044356001600160401b0381116102da578161047891600401610316565b929092916064356001600160401b0381116102da578161049a91600401610316565b92909291608435906001600160401b0382116102da576104bc91600401610409565b9060a4359060c43590565b346102da576105146105246104db36610427565b94989695939199929a906105026104fd61017a885f52600160205260405f2090565b611015565b61050d8c151561105a565b8714611095565b61051c6110e5565b9936916103d3565b9561053387518a51111561118b565b5f5b895181101561059657806105908b61057e61057161055d8561056b8f60019961055d916111de565b516001600160f81b03191690565b946111de565b6001600160f81b03191690565b6001600160f81b0319909116146111f4565b01610535565b506105a0886118e0565b90156106385750610633926106097fade97adb168d838f3d97110443d98c18d3ec4e1b4c0aae629fa70dac085fb4199593610625936105dd6103a9565b938985526105ec36888d6103d3565b6020860152604085015233606085015242608085015236916103d3565b60a0820152610620865f52600460205260405f2090565b6113a2565b6040519182913396836114c8565b0390a3005b61067761068f91877f7e8a05d77a2d4c7c1a6ea190c13222764cfaf0f9bf106e20a8d0ac8729eeeee06040518061066f8582611232565b0390a2611243565b60405162461bcd60e51b815291829160048301611232565b0390fd5b346102da5760203660031901126102da576004355f526001602052602060ff60405f2054166040519015158152f35b346102da5760203660031901126102da576004356001600160a01b038116908190036102da575f525f602052602060ff60405f2054166040519015158152f35b346102da5760203660031901126102da57600435335f525f60205261072f61018160405f2060ff90541690565b6107686107636101ae61017a3361074e865f52600560205260405f2090565b9060018060a01b03165f5260205260405f2090565b6114ef565b6107856101b26101ae60016101a3855f52600260205260405f2090565b6107c3600161079c835f52600260205260405f2090565b0180546107ae9060081c60ff16611540565b61ff0082549160081b169061ff001916179055565b6107dc6102883361074e845f52600560205260405f2090565b6107f360016101d5835f52600260205260405f2090565b60405160ff90911681523391907fbad3ed98bb5954e465fbe345ac647f09bf6e0e01710a83f119a2e018d546dc22908060208101610633565b60206003198201126102da57600435906001600160401b0382116102da5761042491600401610409565b805180835260209291819084018484015e5f828201840152601f01601f1916010190565b6040906104249392151581528160208201520190610856565b346102da576108a96108a43661082c565b6119f9565b906108b96040519283928361087a565b0390f35b346102da576108a96108ce3661082c565b6118e0565b346102da5760403660031901126102da576004356024356001600160a01b03811681036102da575f9182526005602090815260408084206001600160a01b039093168452918152912060ff9054166040519015158152f35b9181601f840112156102da578235916001600160401b0383116102da576020808501948460051b0101116102da57565b346102da5760803660031901126102da576004356001600160401b0381116102da5761098b90369060040161092b565b906024356001600160401b0381116102da576109ab90369060040161092b565b92604435936001600160401b0385116102da576109cf6109db95369060040161092b565b939092606435956115e5565b005b90600182811c92168015610a0b575b60208310146109f757565b634e487b7160e01b5f52602260045260245ffd5b91607f16916109ec565b9060405191825f825492610a28846109dd565b8084529360018116908115610a915750600114610a4d575b506103a792500383610377565b90505f9291925260205f20905f915b818310610a755750509060206103a7928201015f610a40565b6020919350806001915483858901015201910190918492610a5c565b9050602092506103a794915060ff191682840152151560051b8201015f610a40565b60021115610abd57565b634e487b7160e01b5f52602160045260245ffd5b906002821015610abd5752565b346102da5760203660031901126102da576004355f526002602052610b2460405f206001610b0b82610a15565b91015460ff604051938493608085526080850190610856565b91610b3460208501838316610ad1565b818160081c16604085015260101c16151560608301520390f35b346102da5760203660031901126102da576004356001600160401b0381116102da57610b7e903690600401610409565b602081519101205f526001602052602060ff60405f2054166040519015158152f35b801515036102da57565b346102da5760403660031901126102da576004356001600160401b0381116102da57610bdd6108b9913690600401610409565b602435610be981610ba0565b335f525f602052610c0261018160405f2060ff90541690565b7f04aeaedb76c4e5397031e2c72ca3bd7af87d75bc04cac86929d82834aa1771dd600354928392610c3a610c3585611705565b600355565b15610cc257610c7f5f5b610c5c610c4f610398565b9184835260208301610f91565b5f60408201525f6060820152610c7a855f52600260205260405f2090565b61172b565b610c9e6001610c96855f52600260205260405f2090565b015460ff1690565b610caf60405192839233918461185e565b0390a26040519081529081906020820190565b610c7f6001610c44565b346102da5760203660031901126102da576004355f52600460205260405f2080546108b9610cfc60018401610a15565b9260028101549060018060a01b0360038201541690610d22600560048301549201610a15565b91610d3f604051978897885260c0602089015260c0880190610856565b9360408701526060860152608085015283820360a0850152610856565b91610d7b9061042496949592845260a0602085015260a0840190610856565b6001600160a01b0390941660408301526060820152808303608090910152610856565b346102da5760203660031901126102da576004355f52600460205260405f20604051610dc981610357565b815481526108b9610ddc60018401610a15565b91602081019283526002840154604082015260018060a01b036003850154169360608201948552610e37610e1e60056004840154936080860194855201610a15565b60a084018190529251945195516001600160a01b031690565b90519060405195869586610d5c565b346102da575f3660031901126102da576020604051620151808152f35b346102da57610514610e776104db36610427565b95610e8687518a51111561118b565b5f5b8951811015610eb65780610eb08b61057e61057161055d8561056b8f60019961055d916111de565b01610e88565b506105a088611be0565b346102da576108a9610ed13661082c565b611be0565b15610edd57565b60405162461bcd60e51b81526020600482015260096024820152682737ba1030b236b4b760b91b6044820152606490fd5b15610f1557565b60405162461bcd60e51b815260206004820152601060248201526f105b1c9958591e48195e1958dd5d195960821b6044820152606490fd5b15610f5457565b60405162461bcd60e51b81526020600482015260156024820152744e6f7420656e6f756768207369676e61747572657360581b6044820152606490fd5b6002821015610abd5752565b90604051608081018181106001600160401b0382111761037257604052606060ff60018395610fcb81610a15565b85520154610fde82821660208601610f91565b818160081c16604085015260101c161515910152565b9291602061100d6103a793604087526040870190610856565b940190610ad1565b1561101c57565b60405162461bcd60e51b8152602060048201526016602482015275111bdb585a5b881b9bdd081dda1a5d195b1a5cdd195960521b6044820152606490fd5b1561106157565b60405162461bcd60e51b815260206004820152600c60248201526b115b5c1d1e481c1c9bdb5c1d60a21b6044820152606490fd5b1561109c57565b60405162461bcd60e51b815260206004820152600d60248201526c090c2e6d040dad2e6dac2e8c6d609b1b6044820152606490fd5b604051906110e0602083610377565b5f8252565b604051906110f460a083610377565b6076825275393ab6329034b71030b636103932b9b837b739b2b99760511b6080837f596f752061726520612068656c7066756c2041492074686174206f6e6c79206760208201527f656e65726174657320736166652c20636f6d706c69616e7420636f6e74656e7460408201527f2e20596f75206d757374207374726963746c7920666f6c6c6f7720746869732060608201520152565b1561119257565b60405162461bcd60e51b815260206004820152601060248201526f141c9bdb5c1d081d1bdbc81cda1bdc9d60821b6044820152606490fd5b634e487b7160e01b5f52603260045260245ffd5b9081518110156111ef570160200190565b6111ca565b156111fb57565b60405162461bcd60e51b815260206004820152600f60248201526e090cac2c8cae440dad2e6dac2e8c6d608b1b6044820152606490fd5b906020610424928181520190610856565b906103a7602e6020936040519485916d02a2629a71034b73b30b634b21d160951b828401528051918291018484015e81015f838201520301601f198101845283610377565b601f821161129557505050565b5f5260205f20906020601f840160051c830193106112cd575b601f0160051c01905b8181106112c2575050565b5f81556001016112b7565b90915081906112ae565b91909182516001600160401b038111610372576112fe816112f884546109dd565b84611288565b6020601f821160011461133d57819061132e9394955f92611332575b50508160011b915f199060031b1c19161790565b9055565b015190505f8061131a565b601f19821690611350845f5260205f2090565b915f5b81811061138a57509583600195969710611372575b505050811b019055565b01515f1960f88460031b161c191690555f8080611368565b9192602060018192868b015181550194019201611353565b90805182556001820160208201518051906001600160401b038211610372576113d5826113cf85546109dd565b85611288565b602090601f8311600114611454579261140e8360a0946103a79897946005975f926113325750508160011b915f199060031b1c19161790565b90555b6040810151600285015560608101516003850180546001600160a01b0319166001600160a01b0390921691909117905560808101516004850155015191016112d7565b90601f19831691611468855f5260205f2090565b925f5b8181106114b05750936103a7979693600596936001938360a09810611498575b505050811b019055611411565b01515f1960f88460031b161c191690555f808061148b565b9293602060018192878601518155019501930161146b565b90918060409360208452816020850152848401375f828201840152601f01601f1916010190565b156114f657565b60405162461bcd60e51b815260206004820152600e60248201526d105b1c9958591e481cda59db995960921b6044820152606490fd5b634e487b7160e01b5f52601160045260245ffd5b60ff1660ff81146115515760010190565b61152c565b1561155d57565b60405162461bcd60e51b815260206004820152600f60248201526e098cadccee8d040dad2e6dac2e8c6d608b1b6044820152606490fd5b91908110156111ef5760051b0190565b91908110156111ef5760051b81013590601e19813603018212156102da5701908135916001600160401b0383116102da5760200182360381136102da579190565b95919294906116026104fd61017a855f52600160205260405f2090565b61160d868214611556565b611618828214611556565b5f5b81811061162b575050505050505050565b80611639600192848b611594565b356116526108a461164b84888c6115a4565b36916103d3565b5061165f575b500161161a565b6116fc906116c0611689611674858d8c6115a4565b919061167e6103a9565b9285845236916103d3565b6020820152604081018990523360608201524260808201526116a96110d1565b60a0820152610620835f52600460205260405f2090565b7fade97adb168d838f3d97110443d98c18d3ec4e1b4c0aae629fa70dac085fb4196116ec848c8b6115a4565b60405133959092839290836114c8565b0390a35f611658565b5f1981146115515760010190565b906002811015610abd5760ff80198354169116179055565b919080519283516001600160401b0381116103725761174e816112f884546109dd565b6020601f82116001146117ea576117d292611788836060946001946103a7999a5f926113325750508160011b915f199060031b1c19161790565b81555b01926117a4602082015161179e81610ab3565b85611713565b6117cb6117b5604083015160ff1690565b855461ff00191660089190911b61ff0016178555565b0151151590565b815462ff0000191690151560101b62ff000016179055565b601f198216956117fd845f5260205f2090565b965f5b8181106118465750836103a797986001946117d2979460609787951061182e575b505050811b01815561178b565b01515f1960f88460031b161c191690555f8080611821565b83830151895560019098019760209384019301611800565b919392611883611878604093606086526060860190610856565b956020850190610ad1565b6001600160a01b0316910152565b604051906118a0604083610377565b600c82526b496e76616c6964207479706560a01b6020830152565b604051906118ca604083610377565b6007825266115e1c1a5c995960ca1b6020830152565b604081511061198e5760208101517f060bf4087553b05a79c27efa1d205885fe88037ded0bdf89ed2a74fb1ace8ad08114159081611963575b50611958576040015180611934575b506001906104246110d1565b8042111561192857620151809042031161194e575f611928565b5f906104246118bb565b505f90610424611891565b7f83f2b9c2c7ebabadc98139fffb77d9f3d11750cd2dcd512035663ada5216b2d5915014155f611919565b505f9060405161199f604082610377565b600f81526e141c9bdbd9881d1bdbc81cda1bdc9d608a1b602082015290565b604051906119cd604083610377565b601782527f50726f6f6620746f6f2073686f727420666f7220424c530000000000000000006020830152565b5f9160609160d0815110611b5c5760208101517f060bf4087553b05a79c27efa1d205885fe88037ded0bdf89ed2a74fb1ace8ad08114159081611b31575b50611b2357604081015180611aff575b611abd90610168830151926101888101516101988201516101b8830151916101d8840151936101f881015195611ab360c0610104840151930151611aa560405193849260208401968791606093918352602083015260408201520190565b03601f198101835282610377565b5190209687611dc9565b919015611ac8575050565b61068f91610677917f7e8a05d77a2d4c7c1a6ea190c13222764cfaf0f9bf106e20a8d0ac8729eeeee06040518061066f8582611232565b80421115611a4757620151808142031115611a475750509150505f906104246118bb565b509150505f90610424611891565b7f83f2b9c2c7ebabadc98139fffb77d9f3d11750cd2dcd512035663ada5216b2d5915014155f611a37565b509150505f906104246119be565b60405190611b79604083610377565b601982527f50726f6f6620746f6f2073686f727420666f72204543445341000000000000006020830152565b60405190611bb4604083610377565b601782527f45434453413a2065637265636f766572206661696c65640000000000000000006020830152565b6081815110611cec5760208101517f060bf4087553b05a79c27efa1d205885fe88037ded0bdf89ed2a74fb1ace8ad08114159081611cc1575b5061195857604081015180611ca0575b61010482015190611c5c60c0840151611aa560405193849260208401968791606093918352602083015260408201520190565b51902090610188610168820151910151915f52602052604052601b60605260205f6080816001610bb8fa15611c96576001906104246110d1565b5f90610424611ba5565b80421115611c2957620151808142031115611c295750505f906104246118bb565b7f83f2b9c2c7ebabadc98139fffb77d9f3d11750cd2dcd512035663ada5216b2d5915014155f611c19565b505f90610424611b6a565b3d15611d21573d90611d08826103b8565b91611d166040519384610377565b82523d5f602084013e565b606090565b60405190611d35604083610377565b600f82526e109314c818d85b1b0819985a5b1959608a1b6020830152565b60405190611d62604083610377565b601082526f109314c8195b5c1d1e481c995cdd5b1d60821b6020830152565b908160209103126102da575161042481610ba0565b60405190611da5604083610377565b6015825274109314c81cda59db985d1d5c99481a5b9d985b1a59605a1b6020830152565b604051600160f81b60208201525f97889791969095919490939192608081901c92909190600160f81b60218a015260228901526042880152600160f91b60628801526f13e029b1174d23d89c27ec35a7a0156560638801526ea005b3daf5006d13f655af8b45a85e60838801526ea3e2cf3aba6f93df518a0f64f2e7f460a38801526ed6b2f5a8c4c8c7a6d9e7c7b8a1f0d260c3880152600160f81b60e388015260e4870152610104860152600160f91b6101248601526101258501526101458401526101658301526101858201526101858152611ea96101a582610377565b602081519101600f5afa611ebb611cf7565b9015611f0257805115611ef7576101ae81602080611ede94518301019101611d81565b611eed576001906104246110d1565b5f90610424611d96565b505f90610424611d53565b505f90610424611d2656fea26469706673582212201b1d05b28836069e5b0632c8cb477889c5e55add3d3e3ec8cb51b5532ea4063464736f6c634300081c0033",
  "linkReferences": {},
  "deployedLinkReferences": {},
  "immutableReferences": {},
  "inputSourceName": "project/contracts/TLSNContentVerifierWithMultisig.sol",
  "buildInfoId": "solc-0_8_28-89bb2b8b57a8c4b7ceda99742d85b3f33ee012bf"
}